{
  "contractName": "TerraRegistry",
  "abi": [
    {
      "constant": true,
      "inputs": [],
      "name": "version",
      "outputs": [
        {
          "name": "",
          "type": "uint256"
        }
      ],
      "payable": false,
      "stateMutability": "view",
      "type": "function"
    },
    {
      "constant": true,
      "inputs": [],
      "name": "previousPublishedVersion",
      "outputs": [
        {
          "name": "",
          "type": "address"
        }
      ],
      "payable": false,
      "stateMutability": "view",
      "type": "function"
    },
    {
      "constant": true,
      "inputs": [
        {
          "name": "",
          "type": "bytes32"
        },
        {
          "name": "",
          "type": "bytes32"
        },
        {
          "name": "",
          "type": "address"
        },
        {
          "name": "",
          "type": "address"
        }
      ],
      "name": "relationships",
      "outputs": [
        {
          "name": "expires",
          "type": "uint256"
        },
        {
          "name": "transferable",
          "type": "bool"
        }
      ],
      "payable": false,
      "stateMutability": "view",
      "type": "function"
    },
    {
      "constant": true,
      "inputs": [
        {
          "name": "",
          "type": "bytes32"
        },
        {
          "name": "",
          "type": "bytes32"
        },
        {
          "name": "",
          "type": "address"
        }
      ],
      "name": "attributes",
      "outputs": [
        {
          "name": "",
          "type": "bytes32"
        }
      ],
      "payable": false,
      "stateMutability": "view",
      "type": "function"
    },
    {
      "inputs": [
        {
          "name": "_previousPublishedVersion",
          "type": "address"
        }
      ],
      "payable": false,
      "stateMutability": "nonpayable",
      "type": "constructor"
    },
    {
      "anonymous": false,
      "inputs": [
        {
          "indexed": true,
          "name": "property",
          "type": "bytes32"
        },
        {
          "indexed": true,
          "name": "name",
          "type": "bytes32"
        },
        {
          "indexed": false,
          "name": "issuer",
          "type": "address"
        },
        {
          "indexed": false,
          "name": "value",
          "type": "bytes32"
        }
      ],
      "name": "AttributeClaim",
      "type": "event"
    },
    {
      "anonymous": false,
      "inputs": [
        {
          "indexed": true,
          "name": "property",
          "type": "bytes32"
        },
        {
          "indexed": true,
          "name": "relationship",
          "type": "bytes32"
        },
        {
          "indexed": true,
          "name": "subject",
          "type": "address"
        },
        {
          "indexed": false,
          "name": "issuer",
          "type": "address"
        },
        {
          "indexed": false,
          "name": "expires",
          "type": "uint256"
        }
      ],
      "name": "RelationshipClaim",
      "type": "event"
    },
    {
      "constant": false,
      "inputs": [
        {
          "name": "property",
          "type": "bytes32"
        },
        {
          "name": "name",
          "type": "bytes32"
        },
        {
          "name": "value",
          "type": "bytes32"
        }
      ],
      "name": "set",
      "outputs": [],
      "payable": false,
      "stateMutability": "nonpayable",
      "type": "function"
    },
    {
      "constant": false,
      "inputs": [
        {
          "name": "property",
          "type": "bytes32"
        },
        {
          "name": "relationship",
          "type": "bytes32"
        },
        {
          "name": "subject",
          "type": "address"
        },
        {
          "name": "transferable",
          "type": "bool"
        },
        {
          "name": "expires",
          "type": "uint256"
        }
      ],
      "name": "relate",
      "outputs": [],
      "payable": false,
      "stateMutability": "nonpayable",
      "type": "function"
    },
    {
      "constant": true,
      "inputs": [
        {
          "name": "property",
          "type": "bytes32"
        },
        {
          "name": "relationship",
          "type": "bytes32"
        },
        {
          "name": "subject",
          "type": "address"
        },
        {
          "name": "issuer",
          "type": "address"
        }
      ],
      "name": "related",
      "outputs": [
        {
          "name": "",
          "type": "bool"
        }
      ],
      "payable": false,
      "stateMutability": "view",
      "type": "function"
    },
    {
      "constant": false,
      "inputs": [
        {
          "name": "property",
          "type": "bytes32"
        },
        {
          "name": "relationship",
          "type": "bytes32"
        },
        {
          "name": "issuer",
          "type": "address"
        },
        {
          "name": "recipient",
          "type": "address"
        }
      ],
      "name": "transfer",
      "outputs": [
        {
          "name": "",
          "type": "bool"
        }
      ],
      "payable": false,
      "stateMutability": "nonpayable",
      "type": "function"
    }
  ],
  "bytecode": "0x6060604052341561000f57600080fd5b604051602080610bd683398101604052808051906020019091905050600160008190555080600160006101000a81548173ffffffffffffffffffffffffffffffffffffffff021916908373ffffffffffffffffffffffffffffffffffffffff16021790555050610b52806100846000396000f30060606040526004361061008e576000357c0100000000000000000000000000000000000000000000000000000000900463ffffffff16806354fd4d50146100935780636104464f146100bc57806390bb5fa414610111578063a681c74b1461019b578063bb40a4a914610225578063e832729714610266578063f4880200146102f7578063f73c53231461035e575b600080fd5b341561009e57600080fd5b6100a66103cd565b6040518082815260200191505060405180910390f35b34156100c757600080fd5b6100cf6103d3565b604051808273ffffffffffffffffffffffffffffffffffffffff1673ffffffffffffffffffffffffffffffffffffffff16815260200191505060405180910390f35b341561011c57600080fd5b6101816004808035600019169060200190919080356000191690602001909190803573ffffffffffffffffffffffffffffffffffffffff1690602001909190803573ffffffffffffffffffffffffffffffffffffffff169060200190919050506103f9565b604051808215151515815260200191505060405180910390f35b34156101a657600080fd5b61020b6004808035600019169060200190919080356000191690602001909190803573ffffffffffffffffffffffffffffffffffffffff1690602001909190803573ffffffffffffffffffffffffffffffffffffffff169060200190919050506104b9565b604051808215151515815260200191505060405180910390f35b341561023057600080fd5b610264600480803560001916906020019091908035600019169060200190919080356000191690602001909190505061081b565b005b341561027157600080fd5b6102d66004808035600019169060200190919080356000191690602001909190803573ffffffffffffffffffffffffffffffffffffffff1690602001909190803573ffffffffffffffffffffffffffffffffffffffff16906020019091905050610917565b60405180838152602001821515151581526020019250505060405180910390f35b341561030257600080fd5b61035c6004808035600019169060200190919080356000191690602001909190803573ffffffffffffffffffffffffffffffffffffffff16906020019091908035151590602001909190803590602001909190505061096f565b005b341561036957600080fd5b6103af6004808035600019169060200190919080356000191690602001909190803573ffffffffffffffffffffffffffffffffffffffff16906020019091905050610af4565b60405180826000191660001916815260200191505060405180910390f35b60005481565b600160009054906101000a900473ffffffffffffffffffffffffffffffffffffffff1681565b6000426003600087600019166000191681526020019081526020016000206000866000191660001916815260200190815260200160002060008573ffffffffffffffffffffffffffffffffffffffff1673ffffffffffffffffffffffffffffffffffffffff16815260200190815260200160002060008473ffffffffffffffffffffffffffffffffffffffff1673ffffffffffffffffffffffffffffffffffffffff16815260200190815260200160002060000154119050949350505050565b6000806003600087600019166000191681526020019081526020016000206000866000191660001916815260200190815260200160002060003373ffffffffffffffffffffffffffffffffffffffff1673ffffffffffffffffffffffffffffffffffffffff16815260200190815260200160002060008573ffffffffffffffffffffffffffffffffffffffff1673ffffffffffffffffffffffffffffffffffffffff168152602001908152602001600020905042816000015411801561058d57508060010160009054906101000a900460ff165b80156106495750426003600088600019166000191681526020019081526020016000206000876000191660001916815260200190815260200160002060008573ffffffffffffffffffffffffffffffffffffffff1673ffffffffffffffffffffffffffffffffffffffff16815260200190815260200160002060008673ffffffffffffffffffffffffffffffffffffffff1673ffffffffffffffffffffffffffffffffffffffff16815260200190815260200160002060000154105b1561080d576003600087600019166000191681526020019081526020016000206000866000191660001916815260200190815260200160002060003373ffffffffffffffffffffffffffffffffffffffff1673ffffffffffffffffffffffffffffffffffffffff16815260200190815260200160002060008573ffffffffffffffffffffffffffffffffffffffff1673ffffffffffffffffffffffffffffffffffffffff1681526020019081526020016000206000808201600090556001820160006101000a81549060ff02191690555050806003600088600019166000191681526020019081526020016000206000876000191660001916815260200190815260200160002060008573ffffffffffffffffffffffffffffffffffffffff1673ffffffffffffffffffffffffffffffffffffffff16815260200190815260200160002060008673ffffffffffffffffffffffffffffffffffffffff1673ffffffffffffffffffffffffffffffffffffffff168152602001908152602001600020600082015481600001556001820160009054906101000a900460ff168160010160006101000a81548160ff02191690831515021790555090505060019150610812565b600091505b50949350505050565b816000191683600019167fc23b2c028d34ad3f9073832637ca49a27dd912164836ab6e9404e0cb92b284993384604051808373ffffffffffffffffffffffffffffffffffffffff1673ffffffffffffffffffffffffffffffffffffffff16815260200182600019166000191681526020019250505060405180910390a3806002600085600019166000191681526020019081526020016000206000846000191660001916815260200190815260200160002060003373ffffffffffffffffffffffffffffffffffffffff1673ffffffffffffffffffffffffffffffffffffffff1681526020019081526020016000208160001916905550505050565b60036020528360005260406000206020528260005260406000206020528160005260406000206020528060005260406000206000935093505050508060000154908060010160009054906101000a900460ff16905082565b8273ffffffffffffffffffffffffffffffffffffffff16846000191686600019167f75a8b80068a16e4fe47569225aaf66341cb1f3743d96455dd331e2ead661fa0a3385604051808373ffffffffffffffffffffffffffffffffffffffff1673ffffffffffffffffffffffffffffffffffffffff1681526020018281526020019250505060405180910390a460408051908101604052808281526020018315158152506003600087600019166000191681526020019081526020016000206000866000191660001916815260200190815260200160002060008573ffffffffffffffffffffffffffffffffffffffff1673ffffffffffffffffffffffffffffffffffffffff16815260200190815260200160002060003373ffffffffffffffffffffffffffffffffffffffff1673ffffffffffffffffffffffffffffffffffffffff1681526020019081526020016000206000820151816000015560208201518160010160006101000a81548160ff0219169083151502179055509050505050505050565b6002602052826000526040600020602052816000526040600020602052806000526040600020600092509250505054815600a165627a7a723058209c75dc21fc4907a2d27bd8c8816eac723ecfb18bedcd1117add2b3a371a82a4e0029",
  "source": "pragma solidity ^0.4.19;\n\ncontract TerraRegistry {\n  uint public version;\n  address public previousPublishedVersion;\n\n  mapping(bytes32 => mapping(bytes32 => mapping(address => bytes32))) public attributes;\n  mapping(bytes32 => mapping(bytes32 => mapping(address => mapping(address => Validity)))) public relationships;\n\n  function TerraRegistry(address _previousPublishedVersion) public {\n    version = 1;\n    previousPublishedVersion = _previousPublishedVersion;\n  }\n\n  event AttributeClaim(\n    bytes32 indexed property,\n    bytes32 indexed name,\n    address issuer,\n    bytes32 value\n  );\n  \n  function set(bytes32 property, bytes32 name, bytes32 value) public {\n    AttributeClaim(property, name, msg.sender, value);\n    attributes[property][name][msg.sender] = value;\n  }\n\n\n  struct Validity {\n    uint expires;\n    bool transferable;\n  }\n\n\n  event RelationshipClaim(\n    bytes32 indexed property,\n    bytes32 indexed relationship,\n    address indexed subject,\n    address issuer,\n    uint expires\n  );\n  \nfunction relate(bytes32 property, bytes32 relationship, address subject, bool transferable, uint expires) public {\n  RelationshipClaim(property, relationship,subject, msg.sender, expires);\n  relationships[property][relationship][subject][msg.sender] = Validity(expires, transferable);\n}\n\nfunction related(bytes32 property, bytes32 relationship, address subject, address issuer) public constant returns(bool) {\n  return (relationships[property][relationship][subject][issuer].expires > now);\n}\n\n// Update to use ERC721\nfunction transfer(bytes32 property, bytes32 relationship, address issuer, address recipient) public returns(bool) {\n    Validity storage validity = relationships[property][relationship][msg.sender][issuer];\n    if (validity.expires > now && validity.transferable && relationships[property][relationship][recipient][issuer].expires < now ) {\n      delete relationships[property][relationship][msg.sender][issuer];\n      relationships[property][relationship][recipient][issuer] = validity;\n      return true;\n    } else {\n      return false;\n    }\n  }\n}\n",
  "sourcePath": "/home/ajunge/work/terra-claims/terra-registry/contracts/TerraRegistry.sol",
  "compiler": {
    "name": "solc",
    "version": "0.4.19+commit.c4cbbb05.Emscripten.clang"
  },
  "schemaVersion": "2.0.0",
  "updatedAt": "2018-03-09T16:24:30.693Z"
}