{
  "contractName": "TerraRegistry",
  "abi": [
    {
      "constant": true,
      "inputs": [
        {
          "name": "",
          "type": "bytes32"
        },
        {
          "name": "",
          "type": "bytes32"
        },
        {
          "name": "",
          "type": "address"
        }
      ],
      "name": "claims",
      "outputs": [
        {
          "name": "",
          "type": "uint256"
        }
      ],
      "payable": false,
      "stateMutability": "view",
      "type": "function"
    },
    {
      "anonymous": false,
      "inputs": [
        {
          "indexed": true,
          "name": "property",
          "type": "bytes32"
        },
        {
          "indexed": true,
          "name": "claimType",
          "type": "bytes32"
        },
        {
          "indexed": false,
          "name": "issuer",
          "type": "address"
        },
        {
          "indexed": false,
          "name": "value",
          "type": "uint256"
        }
      ],
      "name": "AttributeClaim",
      "type": "event"
    },
    {
      "constant": false,
      "inputs": [
        {
          "name": "property",
          "type": "bytes32"
        },
        {
          "name": "claimType",
          "type": "bytes32"
        },
        {
          "name": "value",
          "type": "uint256"
        }
      ],
      "name": "claim",
      "outputs": [],
      "payable": false,
      "stateMutability": "nonpayable",
      "type": "function"
    }
  ],
  "bytecode": "0x608060405234801561001057600080fd5b5061025a806100206000396000f30060806040526004361061004c576000357c0100000000000000000000000000000000000000000000000000000000900463ffffffff1680632dba427314610051578063e3a10f5d1461009a575b600080fd5b34801561005d57600080fd5b50610098600480360381019080803560001916906020019092919080356000191690602001909291908035906020019092919050505061010d565b005b3480156100a657600080fd5b506100f760048036038101908080356000191690602001909291908035600019169060200190929190803573ffffffffffffffffffffffffffffffffffffffff1690602001909291905050506101fc565b6040518082815260200191505060405180910390f35b816000191683600019167f21e925b189b616f7475e87034fb111bcb8219d01fb206b78b576a9c836c708ae3384604051808373ffffffffffffffffffffffffffffffffffffffff1673ffffffffffffffffffffffffffffffffffffffff1681526020018281526020019250505060405180910390a38060008085600019166000191681526020019081526020016000206000846000191660001916815260200190815260200160002060003373ffffffffffffffffffffffffffffffffffffffff1673ffffffffffffffffffffffffffffffffffffffff16815260200190815260200160002081905550505050565b6000602052826000526040600020602052816000526040600020602052806000526040600020600092509250505054815600a165627a7a7230582005b61dbcd0988e6af3adf75241fea0227c3c4c5f1802d5586149d5d7ac267e8f0029",
  "source": "pragma solidity ^0.4.19;\n\ncontract TerraRegistry {\n\n  mapping(bytes32 => mapping(bytes32 => mapping(address => uint256))) public claims;\n  // mapping(bytes32 => mapping(bytes32 => mapping(address => mapping(address => Validity)))) public relationships;\n\n  event AttributeClaim(\n    bytes32 indexed property,\n    bytes32 indexed claimType,\n    address issuer,\n    uint256 value\n  );\n  \n  function claim(bytes32 property, bytes32 claimType, uint256 value) public {\n    emit AttributeClaim(property, claimType, msg.sender, value);\n    claims[property][claimType][msg.sender] = value;\n  }\n\n\n  // struct Validity {\n  //   uint expires;\n  //   bool transferable;\n  // }\n\n\n  // event RelationshipClaim(\n  //   bytes32 indexed property,\n  //   bytes32 indexed relationship,\n  //   address indexed subject,\n  //   address issuer,\n  //   uint expires\n  // );\n  \n  // function relate(bytes32 property, bytes32 relationship, address subject, bool transferable, uint expires) public {\n  //   emit RelationshipClaim(property, relationship,subject, msg.sender, expires);\n  //   relationships[property][relationship][subject][msg.sender] = Validity(expires, transferable);\n  // }\n\n  // function related(bytes32 property, bytes32 relationship, address subject, address issuer) public constant returns(bool) {\n  //   return (relationships[property][relationship][subject][issuer].expires > now);\n  // }\n\n  // // Update to use ERC721\n  // function transfer(bytes32 property, bytes32 relationship, address issuer, address recipient) public returns(bool) {\n  //   Validity storage validity = relationships[property][relationship][msg.sender][issuer];\n  //   if (validity.expires > block.timestamp && validity.transferable && relationships[property][relationship][recipient][issuer].expires < block.timestamp ) {\n  //     delete relationships[property][relationship][msg.sender][issuer];\n  //     relationships[property][relationship][recipient][issuer] = validity;\n  //     return true;\n  //   } else {\n  //     return false;\n  //   }\n  // }\n}\n",
  "sourcePath": "/Users/pelleb/code/terra/registry/contracts/TerraRegistry.sol",
  "compiler": {
    "name": "solc",
    "version": "0.4.24+commit.e67f0147.Emscripten.clang"
  },
  "schemaVersion": "2.0.0",
  "updatedAt": "2018-06-02T03:04:22.591Z"
}